:020000040800F2
:10000000D84B002035010008A91600085B01000844
:100010005D0100085F0100086101000800000000A8
:100020000000000000000000000000006301000864
:100030006501000800000000670100086901000870
:1000400085170008252700082F27000839270008F2
:10005000432700084D270008B5270008D90A0008E3
:10006000490B00086D0B0008910B0008B50B000848
:10007000D90B00081520000835200008B11200082F
:10008000D91200084109000869090008910900080F
:10009000B9090008E1090008090A0008310A000846
:1000A000590A0008810A0008C9080008F108000878
:1000B00019090008152400082D2400084906000825
:1000C000B5190008F92C000899170008AD170008A9
:1000D000C11700086B01000805140008FD0A00089C
:1000E00029210008000000009D060008AD06000858
:1000F000350600080D060008210600084524000802
:100100005D240008752400088D240008A52400083B
:10011000BD240008D51700086B010008DFF810D0D7
:1001200000F026FA004800470B310008AFF30080CA
:10013000D84B00200D490E4808604FF080410868F8
:1001400040F4803008600B49086820F08050086057
:100150000948804709480047FEE7FEE7FEE7FEE75B
:10016000FEE7FEE7FEE7FEE7FEE7FEE70C000040E5
:1001700000FF0103B0880040D32300081D010008E0
:1001800040EA01039B0703D009E008C9121F08C019
:10019000042AFAD203E011F8013B00F8013B521E99
:1001A000F9D27047D2B201E000F8012B491EFBD210
:1001B00070470022F6E710B513460A460446194672
:1001C000FFF7F0FF204610BDF0B480EA0102D40F23
:1001D0004200B2EB410F02D20246084611464A00E5
:1001E00042D0C30DDDB2C1F3C752AD1A202D35DAAE
:1001F000C1F3160141F4000204B15242C5F12006D8
:1002000002FA06F12A411044B3EBD05F23D0C4B107
:10021000012DA0EBC35009DCF0BC4FF0004202EA14
:10022000C352DBB200F5000000F073B9400000F1EA
:10023000807000EBC350A0F1807040EAD17049009B
:1002400009E0490841EAC071A0EBC35000F5000085
:10025000400800EBC350F0BC00F052B961420122EB
:1002600002EB4101001BF6E7F0BC704781F0004152
:10027000AAE780F00040A7E780EA010210B502F08B
:100280000043400022D04A001FD0010E01EB126152
:10029000C0F35600C2F3560240F4000042F40002DC
:1002A000A0FB022000047F39140400D0401C50EA57
:1002B000124001D44000491EC2B20C0604EBD0101B
:1002C000401C4008802A02D003E0002010BD20F02E
:1002D0000100002900DA0020184310BD30B480EA84
:1002E000010202F0004530F0004221F0004013D03E
:1002F00090B1C30DD40DC2F31601C0F31600E41A79
:1003000041F4000140F400027D34914201D3641CA9
:1003100000E04900002C02DA30BC002070474FF4A6
:1003200000000023914201D3891A034340084FEA99
:100330004101F7D151B1914202D14FF0004105E0A6
:1003400002D24FF0010101E06FF0010103EBC45054
:10035000284430BC00F0D4B8C10F80EAE0700844F3
:10036000CA079623002100F0D4B896230022114634
:1003700000F0CFB800F0004220F00040C10DC0F303
:10038000160040F400007F2901DA0020704796290A
:1003900003DCC1F19601C84001E096398840002A8B
:1003A000F4D04042704720F00040C10DC0F3160069
:1003B00040F400007F2901DA00207047962903DC11
:1003C000C1F19601C840704796398840704720F0C7
:1003D0000040C20DC0F3160040F400007F2A02DA8C
:1003E0000020014670470021962A03DCC2F19602E4
:1003F000D0407047963A00F074B800F0004230F0F8
:1004000000400AD0C10D01F56071C0F3160042EA48
:100410000151C20840071143704700200146704750
:1004200001F0004330B421F0004150EA010206D04F
:100430000A0DA2F56072C1F31301002A02DC30BC80
:1004400000207047440F44EAC104C100E01830BCEA
:1004500000EBC25000F054B8002801DBC0F10040AE
:10046000002901DBC1F1004181427047002801DB16
:10047000C0F10040002901DBC1F100418842704712
:100480002DE9F05F0546002092469B4688460646C9
:10049000814640241BE0284641464746224600F05C
:1004A00079F853465A46C01A914110D3114618465E
:1004B000224600F016F82D1A67EB01084F46224637
:1004C0000120002100F00DF817EB00094E41201E1D
:1004D000A4F10104DFDC484631462A464346BDE824
:1004E000F09F202A04DB203A00FA02F10020704736
:1004F0009140C2F1200320FA03F319439040704762
:100500000029A8BF7047401C490008BF20F0010027
:10051000704710B4B0FA80FC00FA0CF050EA010405
:1005200004BF10BC704749B1CCF1200421FA04F497
:1005300011FA0CF118BF012121430843A3EB0C0170
:10054000CB1D4FEA00614FEA102042BF002010BCD3
:10055000704700EBC35010440029A4BF10BC704783
:10056000401C490008BF20F0010010BC704700008B
:10057000064C074D06E0E06840F0010394E80700F0
:1005800098471034AC42F6D3FFF7CCFD98340008FE
:10059000B8340008202A04DB203A21FA02F00021B6
:1005A000704721FA02F3D040C2F120029140084383
:1005B0001946704770B58C1810F8015B15F00703E9
:1005C00001D110F8013B2A1106D110F8012B03E0EC
:1005D00010F8016B01F8016B5B1EF9D12B0705D4F4
:1005E0000023521E0DD401F8013BFAE710F8013B3D
:1005F000CB1A921C03E013F8015B01F8015B521E59
:10060000F9D5A142D8D3002070BD000010B5034831
:10061000006810B101490868804710BDA80000209B
:1006200010B50348406810B101494868804710BDC3
:10063000A800002010B50348006810B101490868FF
:10064000804710BDB000002070B51248006878B136
:1006500000BF11480068C0F3002004460E4800683F
:10066000C0F3402005460B482146026828469047C3
:1006700000BF0948006820F00200801C064908609D
:1006800000BF00BF0846006820F00100401C086061
:1006900000BF70BDF00000202484004010B5024867
:1006A00000F00CF810BD00000078004010B50248C2
:1006B00000F004F810BD0000007C00402DE9F04778
:1006C0000446A4200059C0F30726A4200059C0F313
:1006D00007474FF00008204600F0E0FD81462B4818
:1006E00000EBC905A420005966F30F20A42108518E
:1006F000A420005967F31740085106F0730010B9A1
:1007000007F0150098B306F0020068B32878C0F32C
:10071000800048B3D4F8A000C0F3C01020B3D4F8D0
:10072000A00000F00100F8B9D4F8A00020F080008B
:10073000C4F8A000287800F0010040B154F8A00FE0
:1007400040F01001206861F3070044F8A009287800
:10075000C0F3400040B154F8A00F40F008012068F9
:1007600061F3070044F8A00946EA0720688068683A
:1007700050B146EA072242EA0840B0221259C2F3B9
:10078000421122466B689847BDE8F087300300208D
:1007900070B503460C46002000211A46202A01D2DB
:1007A0000B4907E0242A03D20949091D203A01E038
:1007B0004FF0FF3059B12CB10D68012696403543FA
:1007C0000D6004E00D6801269640B5430D6070BDD4
:1007D0000400004010B50446234603220821C80641
:1007E00002F0A0FA10BD10B50446234601221421E0
:1007F000080702F097FA10BD10B5044623460822F8
:100800001121024802F08EFA10BD000090880040CD
:1008100010B50446234602221C21024802F082FA47
:1008200010BD00009088004010B504462346022207
:100830001E21024802F076FA10BD000090880040A8
:1008400070B504460D46234601221821900702F098
:1008500069FA2B4602221146500702F063FA70BD76
:1008600010B50446234604221146100702F05AFA36
:1008700010BD10B50446234602220021500702F0A5
:1008800051FA10BD70B503460C46002000211A46EF
:10089000202A01D20B4907E0252A03D20949091D64
:1008A000203A01E04FF0FF3059B12CB10D6801261C
:1008B000964035430D6004E00D6801269640B5432F
:1008C0000D6070BD1800004010B5074800F0F6F844
:1008D00004460648806A28B1044800222146836AFB
:1008E0000148984710BD00008022014040030020CD
:1008F00010B5074800F0E2F804460648C06A28B17F
:10090000044800222146C36A0148984710BD0000F0
:10091000C02201404003002010B5074800F0CEF887
:1009200004460648006B28B1044800222146036BA8
:100930000148984710BD00000023014040030020FB
:1009400010B5074800F0BAF804460648406828B1D8
:1009500004480022214643680148984710BD000022
:10096000402001404003002010B5074800F0A6F8E1
:1009700004460648806828B104480022214683685E
:100980000148984710BD000080200140400300202E
:1009900010B5074800F092F804460648C06828B130
:1009A000044800222146C3680148984710BD000052
:1009B000C02001404003002010B5074800F07EF839
:1009C00004460648006928B104480022214603690C
:1009D0000148984710BD000000210140400300205D
:1009E00010B5074800F06AF804460648406928B187
:1009F00004480022214643690148984710BD000081
:100A0000402101404003002010B5074800F056F88F
:100A100004460648806928B10448002221468369BB
:100A20000148984710BD000080210140400300208C
:100A300010B5074800F042F804460648C06928B1DE
:100A4000044800222146C3690148984710BD0000B0
:100A5000C02101404003002010B5074800F02EF8E7
:100A600004460648006A28B1044800222146036A69
:100A70000148984710BD00000022014040030020BB
:100A800010B5074800F01AF804460648406A28B135
:100A9000044800222146436A0148984710BD0000DF
:100AA0004022014040030020816821F00201891C9E
:100AB0008160816821F002018160704770B5044651
:100AC000256805F0040010B12046FFF7EDFF20680F
:100AD000A8432060284670BD10B5002000F0B8F88B
:100AE0000446204600F09EF80348006818B102480A
:100AF00001682046884710BD740300202DE9F041AD
:100B000000F01EF905460026002700240A2414E000
:100B1000012000FA04F705EA070068B1204600F05A
:100B200097F80646304600F07DF80648806918B10F
:100B30000448816930468847641C102CE8D3BDE81E
:100B4000F08100007403002010B5012000F080F84F
:100B50000446204600F066F80348406818B1024891
:100B600041682046884710BD7403002010B502205C
:100B700000F06EF80446204600F054F80348806800
:100B800018B1024881682046884710BD74030020D0
:100B900010B5032000F05CF80446204600F042F84F
:100BA0000348C06818B10248C1682046884710BD94
:100BB0007403002010B5042000F04AF804462046D3
:100BC00000F030F80348006918B102480169204676
:100BD000884710BD740300202DE9F04100F0B0F803
:100BE0000546002600270024052414E0012000FA11
:100BF00004F705EA070068B1204600F029F8064628
:100C0000304600F00FF80648406918B104484169C1
:100C100030468847641C0A2CE8D3BDE8F081000008
:100C2000740300200146002201F00F0201209040D1
:100C3000014B18600020704760010820034A02EB56
:100C4000C1030CCBC0E9002370470000E03100086D
:100C500010B501460A4600230024102A65D2DFE8B9
:100C600002F0080D12171C22282E343A40464C522E
:100C7000585E3248006800F00F0359E02F480068C2
:100C8000C0F3031354E02D480068C0F303234FE082
:100C90002A480068C0F303334AE02848001D006872
:100CA00000F00F0344E02548001D0068C0F3031363
:100CB0003EE02248001D0068C0F3032338E01F48CF
:100CC000001D0068C0F3033332E01C4808300068A0
:100CD00000F00F032CE0194808300068C0F303133C
:100CE00026E0164808300068C0F3032320E01348CC
:100CF00008300068C0F303331AE010480C30006875
:100D000000F00F0314E00D480C300068C0F303132B
:100D10000EE00A480C300068C0F3032308E00748DF
:100D20000C300068C0F3033302E04FF6FF7010BDD3
:100D300000BF02EB03142046F9E700007001082011
:100D400001480068704700006001082070B5044643
:100D500000250026250904F00F06052D21D2DFE825
:100D600005F003080E141A003146114800F074F81B
:100D70001AE031460E48303000F06EF814E031468B
:100D80000B48603000F068F80EE0314608489030BB
:100D900000F062F808E031460548C03000F05CF829
:100DA00002E04FF0FF3070BD00BF0020FBE7000005
:100DB000000008202DE9F04104460D4600260027DA
:100DC000260904F00F07052E26D2DFE806F00309F6
:100DD00010171E002A463946134800F02FF91FE06D
:100DE0002A4639461048303000F028F918E02A46E3
:100DF00039460D48603000F021F911E02A463946A5
:100E00000948903000F01AF90AE02A4639460648A7
:100E1000C03000F013F903E04FF0FF30BDE8F0817F
:100E200000BF0020FAE70000000008207FB504465C
:100E30000D4600200290039021466846FFF7FEFE13
:100E4000DDE90001CDE902012A46DDE9020100F0F9
:100E500059FC002004B070BD102972D2DFE801F007
:100E6000080E141A20262C32383F464D545B626916
:100E7000026922F00102521C026163E0026922F061
:100E80000202921C02615DE0026922F00402121D5E
:100E9000026157E0026922F008020832026151E063
:100EA000026922F01002103202614BE0026922F066
:100EB00020022032026145E0026922F04002403205
:100EC00002613FE0026922F080028032026139E073
:100ED000026922F4807202F58072026132E00269D6
:100EE00022F4007202F5007202612BE0026922F422
:100EF000806202F58062026124E0026922F40062ED
:100F000002F5006202611DE0026922F4805202F5DE
:100F10008052026116E0026922F4005202F500528A
:100F200002610FE0026922F4804202F58042026110
:100F300008E0026922F4004202F50042026101E089
:100F4000FFE7704700BF00BFFBE7102972D2DFE860
:100F500001F0080E141A20262C32383F464D545BFF
:100F60006269C26822F00102521CC26063E0C2687A
:100F700022F00202921CC2605DE0C26822F004020C
:100F8000121DC26057E0C26822F008020832C26037
:100F900051E0C26822F010021032C2604BE0C26819
:100FA00022F020022032C26045E0C26822F04002F6
:100FB0004032C2603FE0C26822F080028032C260EC
:100FC00039E0C26822F4807202F58072C26032E0B9
:100FD000C26822F4007202F50072C2602BE0C2689F
:100FE00022F4806202F58062C26024E0C26822F4CA
:100FF000006202F50062C2601DE0C26822F4805205
:1010000002F58052C26016E0C26822F4005202F576
:101010000052C2600FE0C26822F4804202F58042B2
:10102000C26008E0C26822F4004202F50042C260D9
:1010300001E0FFE7704700BF00BFFBE7102959D26E
:10104000DFE801F0080D12171C21262B30353A3F3E
:1010500044494E53036862F3000303604BE00368A6
:1010600062F34103036046E0036862F382030360B6
:1010700041E0036862F3C30303603CE0036862F38A
:101080000413036037E0036862F34513036032E042
:10109000036862F3861303602DE0036862F3C713ED
:1010A000036028E0036862F30823036023E0036819
:1010B00062F3492303601EE0036862F38A2303603E
:1010C00019E0036862F3CB23036014E0036862F362
:1010D0000C3303600FE0036862F34D3303600AE0F2
:1010E000036862F38E33036005E0036862F3CF3375
:1010F000036000E0704700BF00BFFBE7102959D232
:10110000DFE801F0080D12171C21262B30353A3F7D
:1011100044494E53836862F3000383604BE0836865
:1011200062F34103836046E0836862F38203836075
:1011300041E0836862F3C30383603CE0836862F349
:101140000413836037E0836862F34513836032E001
:10115000836862F3861383602DE0836862F3C713AC
:10116000836028E0836862F30823836023E0836858
:1011700062F3492383601EE0836862F38A238360FD
:1011800019E0836862F3CB23836014E0836862F321
:101190000C3383600FE0836862F34D3383600AE0B1
:1011A000836862F38E33836005E0836862F3CF3334
:1011B000836000E0704700BF00BFFBE770B50446E6
:1011C00000250026250904F00F06052D21D2DFE8B1
:1011D00005F003080E141A0031461148FFF7B5FE5A
:1011E0001AE031460E483030FFF7AFFE14E03146CA
:1011F0000B486030FFF7A9FE0EE0314608489030FA
:10120000FFF7A3FE08E031460548C030FFF79DFE1A
:1012100002E04FF0FF3070BD00BF0020FBE7000090
:10122000000008202DE9F04104460D460026002765
:10123000260904F00F07052E26D2DFE806F0030981
:1012400010171E002A4639461348FFF757FF1FE0C4
:101250002A46394610483030FFF750FF18E02A463A
:1012600039460D486030FFF749FF11E02A463946FC
:1012700009489030FFF742FF0AE02A4639460648FF
:10128000C030FFF73BFF03E04FF0FF30BDE8F081D7
:1012900000BF0020FAE700000000082001460348D4
:1012A000814201D1012070470020FCE7007C004012
:1012B00010B58021064800F023F80648006828B1E0
:1012C00004480022114603680148984710BD0000F9
:1012D00000E00040B400002010B58021064800F076
:1012E0000FF80648406828B10448002211464368B8
:1012F0000148984710BD000000F00040B4000020F5
:1013000001627047602005490860084600684FF494
:101310007A71484302490860704700002C010020A0
:101320003001002010B501213020FFF743FD0121DD
:101330003120FFF73FFDFFF7E5FF10BD0C480068C7
:1013400040F2FF3108430A4908600846006B40F24A
:10135000FF31084306490863084680686FF30900B7
:1013600088600846806B6FF309008863704700004F
:101370000000082010B51F480078401C1D49087067
:1013800008460078012805D11B48806B00F47C409A
:101390001949886317480078012829DD1748017822
:1013A0000120884014498860002400BF0FE01348E2
:1013B000007800EB800004EB40001149085C012834
:1013C00003D104F11000FFF7F9FE601CC4B20A2C2F
:1013D000EDDB00200749087008480078401C0749E9
:1013E000087008460078092801DD0020087000BF59
:1013F00010BD0000010000200000082000000020B7
:101400003C01002070B514480469456955B1456137
:101410001248006828B10022294620460F4B1B685D
:10142000984770BD04F00F0098B10B48046104F0B8
:10143000080028B10848C06820F020000649C860AC
:101440000648006828B1002229462046034B1B6845
:10145000984700BFE5E7000000700040E40000206E
:1014600010B51346012B09D1002200BF03E0054C43
:10147000A154541CE2B28242F9DB01E0014A11544A
:1014800010BD00003C01002070B501220021642045
:10149000FFF7E6FF002201211F480078FFF7E0FF79
:1014A000002201211D480078FFF7DAFF1C48006880
:1014B00044300A2190FBF1F42046FEF74DFF194914
:1014C000086008460068FEF798FF21F000410446D6
:1014D000FEF7A6FF1349086013480068FEF73CFFBB
:1014E0000446104801682046FEF7C3FE0D49086017
:1014F00000210C480068FEF7AFFF02D20020094926
:10150000086008480068FEF74EFFC4B20122114689
:101510002046FFF7A5FF70BD77000020790000206E
:101520006400002068000020800000202DE9F041C8
:1015300004463120FFF742FE3020FFF73FFE2546EC
:101540003120FFF703FC0A2001F026FE05F0010719
:10155000002616E03120FFF7F9FB39463020FFF76F
:1015600061FE4FF4167001F029FE3120FFF726FED0
:101570004FF4167001F022FE6D1005F00107701C8B
:10158000C6B2082EE6DB3020FFF718FE3120FFF749
:1015900015FE042001F000FEBDE8F08110B53648CC
:1015A0000088002867D03448008845F21302811A69
:1015B000904228D00CDCB0F5A04F10D06FF4A041C1
:1015C000084400284ED001284BD003284ED14CE0CF
:1015D000012910D0022938D0032947D126E0274815
:1015E0000068FEF7C7FE2649086026A145F2030001
:1015F00000F040FC3BE02A480078401C2849087075
:1016000000F082FE33E026480078401E2549097824
:10161000884208DD22480078012804DD204800784F
:10162000401E1F49087000F06FFE20E01C48007843
:10163000401E1C490978884204DD1A480078401C85
:101640001849087000F07CFE11E016480078012867
:1016500004DD14480078401E1249087000F070FE46
:1016600005E004E000F0ECFB01E000E000BF00BF9B
:1016700000200149088010BD94000020680000206F
:1016800080000020526571756573742073656E74F7
:10169000207375636365737366756C6C7900000005
:1016A0007B0000207C00002010B500F037FD0446D0
:1016B00004F4802018B14FF480201149C8614FF024
:1016C0008040006900F40070C8B1002000F0F4FC14
:1016D0004FF48030810308610020FFF7CAF8002032
:1016E000FFF781F80020FFF7BBF80420FFF772F83E
:1016F000012000F0AFFC10B90120FFF7BAF810BDCF
:10170000008000400A2938D2DFE801F0050A0F14F2
:10171000191E23282D32036862F3020303602DE0B3
:10172000036862F3C503036028E0036862F388136B
:10173000036023E0036862F34B2303601EE0036849
:1017400062F30E33036019E0036862F3D133036080
:1017500014E0036862F3944303600FE0036862F3EC
:10176000575303600AE0036862F31A63036005E0FD
:10177000036862F3DD63036000E0704700BF00BFF1
:10178000FBE7000010B50348006810B10149086884
:10179000804710BDE800002010B50348006810B174
:1017A00001490868804710BD9003002010B5034828
:1017B000406810B101494868804710BD900300207F
:1017C00010B50348806810B101498868804710BD92
:1017D0009003002010B50348C06810B10149C868E3
:1017E000804710BD9003002038B530480078FEF7E0
:1017F000BCFD04462E4801682046FEF72DFE0AD3A4
:101800002A480078FEF7B1FD0446294801682046C1
:10181000FEF722FE09D127A0006800900222694647
:1018200045F2310000F0A8FA00BF23480078FEF727
:101830009CFD04461E4801682046FEF70DFE14D2AA
:101840001A480078FEF791FD0446194801682046C1
:10185000FEF70CFE09D219A000680090022269462A
:1018600045F2310000F088FA00BF13480078FEF717
:101870007CFD04460E4801682046FEF7F7FD0AD3BA
:101880000D480078FEF771FD0446094801682046BE
:10189000FEF7E2FD08D1002000900222694645F2E1
:1018A000310000F069FA00BF38BD00007700002069
:1018B0006800002000020000790000200001000004
:1018C0000EB5002000900190029003211D20FFF72B
:1018D000ADFA03211E20FFF7A9FA4FF496500090AD
:1018E00008208DF8040001208DF8050000208DF8F7
:1018F000060001208DF8070000208DF808008DF803
:10190000090069461D4800F0BBFF1D491B4801F056
:1019100037F9012038B11949C96921F00101491C81
:10192000164AD16105E01549C96921F00101134A40
:10193000D16100BF0520002807DB00F01F02012154
:101940009140104A430942F8231000BF05200028A7
:101950000DDB00BF00BF00F01F02012191404209D2
:10196000920002F1E022C2F8001100BF00BF00BFE8
:1019700001211C20FFF71EFA0EBD000000C001402F
:10198000C127000880E200E00448006820F400302D
:1019900000F50030014908607047000000840040F5
:1019A0000348006820F080008030014908607047DB
:1019B0000084004010B5FFF7F3FFFFF7E5FF044890
:1019C000006820B10248002102680846904710BD17
:1019D000EC0000202DE9F0477448006800880628D4
:1019E00004DB724800680088202826DD70A001F022
:1019F000A9F91BE06D4800680069401C6B49096843
:101A000008616A480068006968490968496988424C
:101A100005D36648006880686449096808616348BE
:101A200000680088401E6149096808805F480068B6
:101A300000880028DED1441EB4E05C4800680069DC
:101A40005A490968098800EB01095848006840694B
:101A5000484525D8554800684069544909680969CE
:101A6000461A524A12681169504A12689069324601
:101A7000FEF786FB4D4800680088871B4B4A1268BA
:101A800091684A4A1268926990193A46FEF778FBC3
:101A9000464800688068384444490968086114E091
:101AA000424B1B681A88414B1B6819693F4B1B68E6
:101AB0009869FEF765FB3D48006800693B49096885
:101AC00009880844394909680861002037490968CC
:101AD000088036480068806900884AF25A51884276
:101AE0005ED1324800688069C07882280FD12F48C3
:101AF0000068806900794F2807D12C480068806908
:101B000040794B2801D104244CE005244AE02748C1
:101B100000688069C07883283FD126480078C8B320
:101B200022480068806990F804804FF6FF7000EA50
:101B300008281E4800688069407940441FFA80F8F0
:101B40001D48A0F8008019480068806980794FEA34
:101B5000400A002019490880002516E01348006853
:101B60008069001DE91C405CFF2800D10FE013488C
:101B70000088401C114908800C4800688069001DDD
:101B8000E91C405C0E4948556D1C5545E6D300BF25
:101B9000062407E0FFE7072404E06FF0020401E0F9
:101BA0006FF001042046BDE8F08700008C000020A3
:101BB0000D0A0000900000209400002092000020F8
:101BC000A00100200EB5002000900190029003219A
:101BD0000D20FFF72BF903210E20FFF727F94FF413
:101BE0006140009008208DF8040001208DF8050068
:101BF00000208DF8060001208DF8070000208DF8E8
:101C000008008DF8090069461B4800F039FE1B49A1
:101C1000194800F0B5FF012038B11749C96921F012
:101C20000101491C144AD16105E01349C96921F039
:101C30000101114AD16100BF0620002807DB00F036
:101C40001F02012191400E4A430942F8231000BFB0
:101C5000062000280DDB00BF00BF00F01F0201219D
:101C600091404209920002F1E022C2F8001100BF47
:101C700000BF00BF0EBD000000D00140212C0008B5
:101C800080E200E070B500254FF48064204601F04A
:101C90004DFA364908600846006808B9012070BD51
:101CA000214632480068FEF784FA2544082420467D
:101CB00001F03CFA2E4908600846006808B9022085
:101CC000EDE721462A480068FEF773FA25441C24F4
:101CD000204601F02BFA274908600846006808B939
:101CE0000320DCE7214623480068FEF762FA25441A
:101CF0004FF48064204601F019FA1E490968886093
:101D00001C480068806808B90420C8E719490968B8
:101D100088682146FEF74DFA164800688068154924
:101D20000968086113480068806812490968C8603A
:101D300010480068806820440E49096848612544BD
:101D40002424204601F0F2F90A490968886109480B
:101D50000068806908B90520A1E706490968886913
:101D60002146FEF726FA2544002098E7840000204B
:101D7000880000208C0000202DE9F04106468846AE
:101D800015464AF25A502B4909680880E81C29492F
:101D900009688870822027490968C870300240EAC3
:101DA0002620244909688880002407E018F80410D8
:101DB00020480068801D0155601CC4B2AC42F5DBB0
:101DC0001C480768002406E017F8011B1A4800F0B9
:101DD0001FFE601CC4B2A81DA042F5DC00201749FC
:101DE0000968C871012015490968887108E013481D
:101DF0000068007920B1002010490968887104E06A
:101E00000E480068C0790A28F1DB00BF0B48006863
:101E1000C0790A2802DB0120BDE8F081074800688C
:101E2000007928B10020054909680871FFF7D2FD43
:101E30000020F1E78400002000D001408C00002049
:101E400010B5202202A145F20300FFF795FF10BD57
:101E50002020202020202020202020202020202082
:101E60002020202020202020202020202020202072
:101E7000000000000FB470B586B005460CA80190B4
:101E800000206249087086E00B9800780D2806D182
:101E90000B98401C0B9000205C4908707BE00B986D
:101EA00000780A2806D10B98401C0B900020574957
:101EB000087070E00B98007825285FD10B98401CC3
:101EC0000B900078632818D0642825D073283ED161
:101ED000019810C8019009E021784C4802780078F8
:101EE000401C4A4B18704A488154641C20780028D2
:101EF000F2D10B98401C0B903FE0019840C8019034
:101F0000424802780078401C404B18704048865484
:101F10000B98401C0B9030E0019840C801900A22B9
:101F200002A9304601F0C0F802AC09E02278374837
:101F300001780078401C354B187035484254641CB9
:101F400020780028F2D10B98401C0B9015E0252139
:101F50002E4802780078401C2C4B18702C48815475
:101F60000B980178184602780078401C18702848B1
:101F700081540B98401C0B9000BF0CE00B9801782B
:101F8000224802780078401C204B18702048815469
:101F90000B98401C0B900B98007800287FF474AFCE
:101FA000A5F5A040033810B11E282AD114E009E09D
:101FB000FF211748154A1278815414480078401CB4
:101FC00012490870114800785C28F1DBA8B25C2245
:101FD0000F49FFF7D1FE14E009E0FF200C490B4A3E
:101FE0001278885409480078401C0849087007484E
:101FF00000785C28F1DBA8B25C220549FFF7BCFE43
:1020000000BF00BF06B070BC5DF814FB9600002056
:102010006802002010B50548006828B10348002276
:10202000114603680248984710BD00001C010020BB
:1020300000C0004010B50548406828B103480022A0
:10204000114643680248984710BD00001C0100205B
:1020500000D0004018B502460023009344F62061EA
:1020600000208AB1134B5B6843F00063114C63603E
:1020700000BF104B5B6803F080430093491E009B38
:102080009BB90029F5D110E00A4B5B6823F000638F
:10209000084C636000BF074B5B6803F0804300930C
:1020A000491E009B0BB90029F5D109B94FF0FF304B
:1020B00018BD00000080004018B5024600230093C0
:1020C00044F6206100208AB1134B5B6843F0005353
:1020D000114C636000BF104B5B6803F0004300933A
:1020E000491E009B9BB90029F5D110E00A4B5B68A3
:1020F00023F00053084C636000BF074B5B6803F09C
:1021000000430093491E009B0BB90029F5D109B982
:102110004FF0FF3018BD0000008000400149C86941
:10212000704700000080004010B5FFF7F7FF04463D
:102130000B48C4612820002807DB00F01F020121A2
:102140009140084A430942F8231000BF064800683E
:1021500028B10348C1682046034A1268904710BD61
:102160000080004080E200E02801002010B5082136
:10217000014800F0F1FA10BD5C00002010B500210C
:1021800000224FF4FA7000BF154B164C2360164B1B
:102190002360401E23465B6803F000430BB1002818
:1021A000F2DC62214FF4FA7041F498320D4B5A611F
:1021B00000BF401E0B4B5B6903F400330BB10028DA
:1021C000F7DC4FF40033074C236423465B6943F488
:1021D0008073636123465B6843F00043636010BD16
:1021E0001178AC00002000406745230108B50020AD
:1021F00000900120FFF760FF28B90120FEF7F3FAF5
:102200000120009004E00020FEF7EDFA002000908D
:102210000020FEF725FB0120FFF71CFF60B900201E
:10222000FEF702FB0220FEF7F3FA6020FEF7E4FA65
:102230000120FEF71EFB0AE09DF80000012803D1F3
:102240000220FEF716FB02E00020FEF712FB08BD9D
:1022500010B5FFF7CBFF10BD08B5002000908DF83A
:1022600000000A4800788DF801000222694645F214
:102270001100FFF781FD064800788DF80100022269
:10228000694645F21200FFF777FD08BD7B0000208C
:102290007C00002008B5002000908DF80000074861
:1022A0000068FEF780F8C0B28DF80100022269468E
:1022B00045F22200FFF760FD08BD00006800002025
:1022C00010B50E480078FEF750F804460C48016837
:1022D0002046FEF7C1F802D20120FFF727F909488E
:1022E0000078FEF742F80446054801682046FEF7EC
:1022F000BDF802D20220FFF719F910BD77000020C7
:10230000680000207900002010B50022114609481D
:102310000078FFF7A5F808480078084908700022FF
:10232000012106480078FFF79BF80448007801492E
:10233000087010BD780000207B000020770000208E
:1023400010B50022114609480078FFF789F80848BF
:102350000078084908700022012106480078FFF73C
:102360007FF8044800780149087010BD7A00002009
:102370007C00002079000020014600204A1E4FF01A
:10238000E0235A6100229A6105221A6100BF4FF0D2
:10239000E022106900F001021AB100F48032002A34
:1023A000F5D04FF0E022126922F001024FF0E02355
:1023B0001A6100229A61704770B504460D460026E6
:1023C00000BF03E02846FFF7D7FF761CA642F9D3EB
:1023D00070BD10B5FFF7D2FEFFF73AFF0420FEF7FD
:1023E000F9F901210846FEF72BFA10BD10B5044695
:1023F000074800F074F850B100F040F900F05CF9C3
:10240000FEF7B8FF00F0F8F8014800F063F810BDDF
:102410001011014010B50448006818B10248016865
:102420000020884710BD0000A003002010B504481C
:10243000406818B1024841680120884710BD00007B
:10244000A003002010B50448806818B102488168D4
:102450000220884710BD0000A003002010B50448EA
:10246000C06818B10248C1680320884710BD000049
:10247000A003002010B50448006918B102480169A2
:102480000420884710BD0000A003002010B50448B8
:10249000406918B1024841690520884710BD000015
:1024A000A003002010B50448806918B10248816972
:1024B0000620884710BD0000A003002010B5044886
:1024C000C06918B10248C1690720884710BD0000E3
:1024D000A0030020C16841F00101C16070470146BE
:1024E000CA6802F0010070472DE9F04104460D462C
:1024F0001D27002608E0204850F82600A04201D100
:102500001E488757701CC6B2082EF4DB1C480068B2
:1025100000F0020008B100F035F8686820606878C3
:10252000B8B1384600280DDB00BF00BF00F01F0225
:10253000012191404209920002F1E022C2F800110B
:1025400000BF00BF00BFA068697840EA4100A060FA
:1025500002E0384600F006FCA87820B1A068A9780F
:1025600040EA8100A060287818B1A0682978084363
:10257000A0600020BDE8F08110340008303400086D
:102580000010014010B501211320FEF701F90121CF
:102590001320FEF777F900200149086010BD000004
:1025A00000100140034A821A1209034B43F822101B
:1025B0007047000000110140A003002010B5002466
:1025C00014E004EB44000B4911F8200060B104EB67
:1025D0004401084A02EB810188688047002004EB2F
:1025E0004401044A02F82100601CC4B2072CE8DB55
:1025F00010BD00000400002000202AE000EB400194
:10260000154A02EB8101498809B300EB400102EB56
:1026100081014988491E00EB40020F4B03EB820207
:10262000518000EB40011A4602EB8101498871B9E3
:1026300000EB400102EB8101898800EB400203EBD3
:1026400082025180012100EB400203F82210411C5C
:10265000C8B20728D2DB70470400002010B5FEF78F
:102660009DFF05480068007928B1002002490968EB
:102670000871FFF7AFF910BD8C0000200D4800680D
:102680008078B0B10B480068C078401C09490968DF
:10269000C87008480068C07802280ADB0020054995
:1026A0000968C870034909688870012001490968F0
:1026B000087170478C0000200A480068807978B162
:1026C00008480068C079401C06490968C871054877
:1026D0000068C079642803DB642002490968C87176
:1026E000704700008C0000201CB500200090019075
:1026F0004BF68030019001208DF8010000208DF80C
:10270000020001208DF8000004490548FFF74AFF48
:1027100069460348FFF7E8FE1CBD0000ED230008F2
:102720001011014010B5012000F04CF910BD10B59A
:10273000022000F047F910BD10B5032000F042F967
:1027400010BD10B5042000F03DF910BD10B50520F6
:1027500000F038F910BD000070B504460D461C208D
:10276000FEF72CFD00201DE0215C002200BF0BE0E5
:1027700000BF0F4B1B6AC3F3401323B1C1F308031F
:102780000B4E336005E0521C40F6FF739A42EFD3C4
:1027900000BF00BF0649096AC1F380110029F9D0C2
:1027A000411CC8B2A842DFDB1C20FEF7CFFA70BD87
:1027B00000C0014010B5062000F004F910BD000073
:1027C00030B503462948C06900F00100002848D010
:1027D00001F00100002844D024480068244C2070F7
:1027E0002448007830B920460078012839D1214C9E
:1027F000207036E01F480078012807D11C48007877
:1028000003282ED102201B4C20702AE019480078A2
:10281000022807D116480078174C20700320154C69
:1028200020701EE013480078032813D11048047864
:1028300011480078401E114D2C540F480078401E5E
:102840000D4C20702046007800280ADC0420094C3A
:10285000207006E007480078042802D10020054CCB
:1028600020700248C069002030BD000000C0014057
:1028700058000020590000205A0000206400002069
:1028800070B504460D46002C77D0002DFCD04B4986
:10289000601A8C422CD009DC4948204468B1B0F55C
:1028A000805F13D0B0F5005F3DD118E0B0F5805FD8
:1028B00027D0B0F5005F36D12CE001210020FDF7D4
:1028C00067FF01210020FDF7DDFF2DE00121084613
:1028D000FDF75EFF01210846FDF7D4FF24E001214A
:1028E0000220FDF755FF01210220FDF7CBFF1BE081
:1028F00001210320FDF74CFF01210320FDF7C2FF5A
:1029000012E001210420FDF743FF01210420FDF71F
:10291000B9FF09E001210520FDF73AFF012105205B
:10292000FDF7B0FF00E000BF00BF2979204600F0AE
:10293000EBF8A979204600F03FF96A7A2046296829
:1029400000F07CF86879022805D1E16821F00401E3
:10295000091DE16003E0E16821F00401E16000BFCE
:10296000287A08B10120E871E879012806D1616967
:1029700021F00101491C616104E01CE0616921F062
:102980000101616100BF287A216C60F300012164BC
:102990004208216C62F34101216400BF01202169DA
:1029A00060F34101216100BF00BF216960F30001B4
:1029B000216100BF00BF002070BD000000B00140D9
:1029C0000080FEBF2DE9F0410446601E062819DA9A
:1029D0000D4951F820502E6A6F6A2E626F62E869C5
:1029E00000F0010008B926F00106601E074951F801
:1029F000200030B1601E51F820303A463146204662
:102A0000984700BFBDE8F08138340008C0030020BB
:102A10000246002300BF0AE000BF106AC0F3401066
:102A200020B1C1F308001060002070475B1C40F625
:102A3000FF708342F0D34FF0FF30F6E72DE9FE4FF1
:102A40000446884615464FF0000910200290012DDB
:102A500004D0022D05D10420029005E00820029048
:102A600002E01020029000BF00BF00BFA06A65F323
:102A70000100A06200BF4046FDF777FC07460298C0
:102A8000FDF773FC824651461E48FDF727FC0646BB
:102A90003946FDF723FC81464E463046FDF797FC4C
:102AA00007463846FDF761FC31460090FDF7E1FB33
:102AB00083464FF08441FDF7DFFB0190FDF773FC87
:102AC0008246F8B26060C7F30720A060C4F844A053
:102AD00000BF102000F0100149B1616B21F010011E
:102AE00010316163616B60F30301616307E0616B47
:102AF00021F010016163616B21F00F01616300BF80
:102B0000BDE8FE8F001B374C4A1F052A35D2DFE88F
:102B100002F0030C16202A00C26822F00302C260F1
:102B2000026922F02002026128E0C26822F003025A
:102B3000521CC260026922F0200202611EE0C268DB
:102B400022F00302921CC260026922F0200202619C
:102B500014E0C26822F00302D21CC260026922F0B3
:102B6000200202610AE0C26822F00302C260026928
:102B700022F020022032026100E000BF00BF704757
:102B800010B502460B460120002100BF0BE0084CA7
:102B900054F82140944204D1064C44F821300020DE
:102BA00003E04C1CE1B20629F1DB00BF10BD0000C0
:102BB00038340008C003002011B3012902D00229D3
:102BC0001DD10DE0C26822F008020832C260C2685E
:102BD00022F02002C260C26822F01002C2601CE033
:102BE000C26822F008020832C260C26822F02002E5
:102BF000C260C26822F010021032C2600DE000BF55
:102C0000C26822F00802C260C26822F02002C260DC
:102C1000C26822F01002C26000BF00BF704700000F
:102C200070B503462348C0692248C06900F001001E
:102C300000283DD001F00100002839D01E4800686E
:102C40000088B0F5806F2FDA1A480068C4B21A48BD
:102C50000068C56818480068C068401C164E366891
:102C6000F0602C7014480068C068134C24686469D4
:102C7000A04205D31048006880680F4C2468E060CB
:102C80000D4800680088401C0B4C246820800A48CE
:102C90000068807818B90120074C2468A0700020D3
:102CA000054C2468E07003E002480068034C207083
:102CB000002070BD00D001408C0000209700002053
:102CC00070B51A24204600F031FA0A490860084617
:102CD000006808B9042070BD214606480068FDF769
:102CE00068FA2544FEF7CEFF08B10220F3E7002082
:102CF000F1E700009C00002010B500BF07484068C5
:102D000040F040000549486000BF0548006820B118
:102D10000348002102680846904710BD00B00040FB
:102D20002401002070B5144602680126A640761ED4
:102D300006FA01F5AA4303FA01F62E403243026077
:102D400070BD00000FB4054B10B503A9044A0298EA
:102D500000F02AF810BC5DF814FB00006930000890
:102D6000A400002000280BDB00F01F02012191408D
:102D7000044A430942F82310BFF34F8FBFF36F8F0C
:102D80007047000080E100E002E008C8121F08C19F
:102D9000002AFAD170477047002001E001C1121FDC
:102DA000002AFBD1704700002DE9FF4F8DB09B46F4
:102DB0000F460446002606E025280BD05A460F99F8
:102DC0009047641C761C20780028F5D111B030465D
:102DD000BDE8F08F0025A8460122984900E0054390
:102DE00014F8013F203B02FA03F00842F7D12078A3
:102DF0002E2817D114F8010F45F004052A280ED00B
:102E00006FF02F022078A0F1300109290AD808EBD1
:102E1000880102EB410100EB0108641CF2E757F85E
:102E2000048B641C20786C280DD004DC4C2812D054
:102E30006A2811D104E074280DD07A280CD10AE058
:102E400045F4001507E0617845F48015814202D110
:102E5000641C05F58015641C2078692844D008DCC2
:102E60000028B3D0582867D063280FD0642808D131
:102E70003AE0702865D0732812D075285AD0782887
:102E80005AD05A460F999047761CD5E017F8040B94
:102E90008DF8000000208DF80100E946012003E0D4
:102EA00057F8049B4FF0FF3069074FF0000501D43D
:102EB0000AE06D1C45450DDA8542FADB19F805106C
:102EC0000029F6D106E06D1C8542FCDB19F80510DF
:102ED0000029F8D12E4404E019F8010B5A460F9945
:102EE00090476D1EF8D2A7E00A200021CDE9080125
:102EF000C5F3025002280CD001CFC117021E71F198
:102F000000020CDA0023D0EB030063EB01012D2259
:102F100008E0FF1D27F00707F7E80201EEE72A05A2
:102F200004D52B228DF8282001223CE0EA073AD074
:102F30002022F7E70A2000E010200021CDE9080157
:102F400007E01020002145F00405CDE908014FF00D
:102F50000808C5F30250022810D001CF00214FF01D
:102F6000000A2A0720D52278702A0DD0DDE908C38F
:102F70008CF0100C5CEA030C0CD015E0FF1D27F060
:102F80000707F7E80201EAE740228DF828204FF012
:102F9000010A0CE050EA010306D030238DF82830F6
:102FA0008DF82920022292462278582A04D024A2A1
:102FB0000DF120090B9209E026A2F9E7DDE90823CB
:102FC000FDF75EFA0B9B9B5C09F8013D50EA01029C
:102FD000F4D1ADEB090020300890680701D44FF020
:102FE00001080899884503DD0898A8EB000000E077
:102FF00000208046002506E00AA85A46405D0F9949
:1030000090476D1C761C5545F6DB04E030205A468F
:103010000F999047761CB8F10001A8F10108F5DC82
:1030200005E019F8010B5A460F999047761C08994C
:10303000481E08900029F4DC641CC4E6092801003D
:10304000303132333435363738396162636465661E
:1030500000000000303132333435363738394142E0
:10306000434445460000000030B50B460C49097842
:10307000A1B181B2002200BF0BE000BF094C246A5D
:10308000C4F3401424B1C1F30804064D2C6005E0DC
:10309000521C40F6FF74A242EFD300BF30BD0000C7
:1030A000A000002000900140F0B503460D461646F2
:1030B000002729460A2E03D0002008702846F0BDBC
:1030C00033B9302001F8010B002008702846F6E7DC
:1030D000002B03DA2D2001F8010B5B4242F2107243
:1030E0000DE093FBF2F404B937B104F1300001F8BC
:1030F000010B04FB123301270A2092FBF0F2002A95
:10310000EFDC002008702846D9E7FEF70BF9FEF740
:1031100015F9FEF7D5FBFFF7E7FAFEF753FDFFF7CA
:10312000CFFD01E0FFF74AFAFCE70000F0B50B30F5
:10313000154D20F007010024144A0FE003688B426C
:103140000BD38B4205D95E1A43184768C3E9006761
:1031500000E04368136002C004E0021D106800280C
:10316000ECD12046002802D1286808B10020F0BD2B
:10317000064A07481060074A121A22F00702C0E9FF
:10318000002401202860D7E7380100203401002006
:10319000DC030020D803002070B504460648006810
:1031A00004FB00F5280E4FF08071FFF705F925F0BC
:1031B0007F40FFF7E1F870BD3001002070B5044694
:1031C0000648006804FB00F5280E4FF08071FFF7F9
:1031D000F3F825F07F40FFF7CFF870BD2C010020F9
:1031E000400108200000000040010820010000000C
:1031F00040010820020000004001082003000000F8
:1032000040010820040000004001082005000000E3
:1032100040010820060000004001082007000000CF
:1032200040010820080000004001082009000000BB
:1032300044010820000000004401082001000000B3
:10324000440108200200000044010820030000009F
:10325000440108200400000044010820050000008B
:103260004401082006000000440108200700000077
:103270004401082008000000440108200900000063
:10328000480108200000000048010820010000005B
:103290004801082002000000480108200300000047
:1032A0004801082004000000480108200500000033
:1032B000480108200600000048010820070000001F
:1032C000480108200800000048010820090000000B
:1032D0004C010820000000004C0108200100000003
:1032E0004C010820020000004C01082003000000EF
:1032F0004C010820040000004C01082005000000DB
:103300004C010820060000004C01082007000000C6
:103310004C010820080000004C01082009000000B2
:1033200050010820000000005001082001000000AA
:103330005001082002000000500108200300000096
:103340005001082004000000500108200500000082
:10335000500108200600000050010820070000006E
:10336000500108200800000050010820090000005A
:103370005401082000000000540108200100000052
:10338000540108200200000054010820030000003E
:10339000540108200400000054010820050000002A
:1033A0005401082006000000540108200700000016
:1033B0005401082008000000540108200900000002
:1033C00058010820000000005801082001000000FA
:1033D00058010820020000005801082003000000E6
:1033E00058010820040000005801082005000000D2
:1033F00058010820060000005801082007000000BE
:1034000058010820080000005801082009000000A9
:103410000011014010110140201101403011014004
:1034200040110140501101406011014070110140F4
:103430001D1E2F3031323334008001400090014096
:1034400000A0014000B0014000C0014000D0014098
:10345000002101404021014014150000802101405D
:10346000C02101401617000080200140C02001400B
:1034700012130000002201404022014018190000F0
:1034800080220140C02201401A1B0000002301409D
:10349000402001401C110000B8340008000000204A
:1034A0003C010000B40500080C3500083C01002078
:1034B0009C4A0000982D00086112323264136D217D
:1034C00022083A640C2B89140C3A0A0C2B5D260C4A
:1034D00034F401324B95220C32143A590C126429FF
:1034E0000C4BE9170C2370173AC118211301031272
:1034F0001E8402A40D130110125E130102041901AF
:0C3500006AFE0233010A1D10040158008D
:040000050800011DD1
:00000001FF
